{
  "contractName": "RentalContract",
  "abi": [
    {
      "anonymous": false,
      "inputs": [
        {
          "indexed": true,
          "internalType": "address",
          "name": "userAddress",
          "type": "address"
        },
        {
          "indexed": false,
          "internalType": "string",
          "name": "description",
          "type": "string"
        }
      ],
      "name": "ComplaintFiled",
      "type": "event"
    },
    {
      "anonymous": false,
      "inputs": [
        {
          "indexed": true,
          "internalType": "address",
          "name": "propertyAddress",
          "type": "address"
        },
        {
          "indexed": false,
          "internalType": "uint256",
          "name": "startDate",
          "type": "uint256"
        },
        {
          "indexed": false,
          "internalType": "uint256",
          "name": "endDate",
          "type": "uint256"
        }
      ],
      "name": "LeaseStarted",
      "type": "event"
    },
    {
      "anonymous": false,
      "inputs": [
        {
          "indexed": true,
          "internalType": "address",
          "name": "propertyAddress",
          "type": "address"
        },
        {
          "indexed": true,
          "internalType": "address",
          "name": "earlyTerminationRequestedBy",
          "type": "address"
        }
      ],
      "name": "LeaseTerminated",
      "type": "event"
    },
    {
      "anonymous": false,
      "inputs": [
        {
          "indexed": true,
          "internalType": "address",
          "name": "propertyAddress",
          "type": "address"
        },
        {
          "indexed": false,
          "internalType": "string",
          "name": "propertyType",
          "type": "string"
        },
        {
          "indexed": false,
          "internalType": "string",
          "name": "publicAddress",
          "type": "string"
        },
        {
          "indexed": false,
          "internalType": "address",
          "name": "owner",
          "type": "address"
        }
      ],
      "name": "PropertyAdded",
      "type": "event"
    },
    {
      "anonymous": false,
      "inputs": [
        {
          "indexed": true,
          "internalType": "address",
          "name": "userAddress",
          "type": "address"
        },
        {
          "indexed": false,
          "internalType": "string",
          "name": "userType",
          "type": "string"
        },
        {
          "indexed": false,
          "internalType": "string",
          "name": "name",
          "type": "string"
        },
        {
          "indexed": false,
          "internalType": "string",
          "name": "surname",
          "type": "string"
        }
      ],
      "name": "UserRegistered",
      "type": "event"
    },
    {
      "inputs": [
        {
          "internalType": "uint256",
          "name": "",
          "type": "uint256"
        }
      ],
      "name": "complaints",
      "outputs": [
        {
          "internalType": "address",
          "name": "userAddress",
          "type": "address"
        },
        {
          "internalType": "string",
          "name": "description",
          "type": "string"
        }
      ],
      "stateMutability": "view",
      "type": "function",
      "constant": true
    },
    {
      "inputs": [
        {
          "internalType": "address",
          "name": "",
          "type": "address"
        }
      ],
      "name": "leases",
      "outputs": [
        {
          "internalType": "uint256",
          "name": "startDate",
          "type": "uint256"
        },
        {
          "internalType": "uint256",
          "name": "endDate",
          "type": "uint256"
        },
        {
          "internalType": "bool",
          "name": "isRented",
          "type": "bool"
        },
        {
          "internalType": "bool",
          "name": "isTerminated",
          "type": "bool"
        },
        {
          "internalType": "address",
          "name": "earlyTerminationRequestedBy",
          "type": "address"
        }
      ],
      "stateMutability": "view",
      "type": "function",
      "constant": true
    },
    {
      "inputs": [
        {
          "internalType": "address",
          "name": "",
          "type": "address"
        }
      ],
      "name": "properties",
      "outputs": [
        {
          "internalType": "address",
          "name": "owner",
          "type": "address"
        },
        {
          "internalType": "string",
          "name": "propertyType",
          "type": "string"
        },
        {
          "internalType": "string",
          "name": "publicAddress",
          "type": "string"
        },
        {
          "internalType": "address",
          "name": "lease",
          "type": "address"
        }
      ],
      "stateMutability": "view",
      "type": "function",
      "constant": true
    },
    {
      "inputs": [
        {
          "internalType": "address",
          "name": "",
          "type": "address"
        }
      ],
      "name": "users",
      "outputs": [
        {
          "internalType": "string",
          "name": "userType",
          "type": "string"
        },
        {
          "internalType": "string",
          "name": "name",
          "type": "string"
        },
        {
          "internalType": "string",
          "name": "surname",
          "type": "string"
        }
      ],
      "stateMutability": "view",
      "type": "function",
      "constant": true
    },
    {
      "inputs": [
        {
          "internalType": "string",
          "name": "_userType",
          "type": "string"
        },
        {
          "internalType": "string",
          "name": "_name",
          "type": "string"
        },
        {
          "internalType": "string",
          "name": "_surname",
          "type": "string"
        }
      ],
      "name": "registerUser",
      "outputs": [],
      "stateMutability": "nonpayable",
      "type": "function"
    },
    {
      "inputs": [
        {
          "internalType": "string",
          "name": "_description",
          "type": "string"
        }
      ],
      "name": "fileComplaint",
      "outputs": [],
      "stateMutability": "nonpayable",
      "type": "function"
    },
    {
      "inputs": [
        {
          "internalType": "address",
          "name": "_propertyAddress",
          "type": "address"
        },
        {
          "internalType": "string",
          "name": "_propertyType",
          "type": "string"
        },
        {
          "internalType": "string",
          "name": "_publicAddress",
          "type": "string"
        }
      ],
      "name": "addProperty",
      "outputs": [],
      "stateMutability": "nonpayable",
      "type": "function"
    },
    {
      "inputs": [],
      "name": "getUserProperties",
      "outputs": [
        {
          "components": [
            {
              "internalType": "address",
              "name": "owner",
              "type": "address"
            },
            {
              "internalType": "string",
              "name": "propertyType",
              "type": "string"
            },
            {
              "internalType": "string",
              "name": "publicAddress",
              "type": "string"
            },
            {
              "internalType": "address",
              "name": "lease",
              "type": "address"
            }
          ],
          "internalType": "struct RentalContract.Property[]",
          "name": "",
          "type": "tuple[]"
        }
      ],
      "stateMutability": "view",
      "type": "function",
      "constant": true
    },
    {
      "inputs": [
        {
          "internalType": "address",
          "name": "_propertyAddress",
          "type": "address"
        },
        {
          "internalType": "address",
          "name": "_tenant",
          "type": "address"
        },
        {
          "internalType": "uint256",
          "name": "_startDate",
          "type": "uint256"
        },
        {
          "internalType": "uint256",
          "name": "_endDate",
          "type": "uint256"
        }
      ],
      "name": "startLease",
      "outputs": [],
      "stateMutability": "nonpayable",
      "type": "function"
    },
    {
      "inputs": [
        {
          "internalType": "address",
          "name": "_propertyAddress",
          "type": "address"
        }
      ],
      "name": "requestEarlyTermination",
      "outputs": [],
      "stateMutability": "nonpayable",
      "type": "function"
    },
    {
      "inputs": [
        {
          "internalType": "address",
          "name": "_propertyAddress",
          "type": "address"
        }
      ],
      "name": "terminateLease",
      "outputs": [],
      "stateMutability": "nonpayable",
      "type": "function"
    }
  ],
  "bytecode": "0x608060405234801561001057600080fd5b50612894806100206000396000f3fe608060405234801561001057600080fd5b50600436106100a95760003560e01c80638b80a1fe116100715780638b80a1fe1461016857806398f013ea146101845780639c2e8b6c146101a0578063a87430ba146101bc578063d637dcfa146101ee578063d74d1f431461020a576100a9565b80631ee90a5f146100ae57806325ec77d7146100ca57806349ebcd53146100fd5780635d09be60146101195780637e69e91214610137575b600080fd5b6100c860048036038101906100c391906119f3565b61023e565b005b6100e460048036038101906100df9190611a7e565b6104d3565b6040516100f49493929190611b39565b60405180910390f35b61011760048036038101906101129190611b8c565b610653565b005b610121610759565b60405161012e9190611d5a565b60405180910390f35b610151600480360381019061014c9190611db2565b610be4565b60405161015f929190611ddf565b60405180910390f35b610182600480360381019061017d9190611e0f565b610cc0565b005b61019e60048036038101906101999190611a7e565b610fe0565b005b6101ba60048036038101906101b59190611a7e565b611113565b005b6101d660048036038101906101d19190611a7e565b61147c565b6040516101e593929190611e76565b60405180910390f35b61020860048036038101906102039190611ec2565b61163e565b005b610224600480360381019061021f9190611a7e565b611777565b604051610235959493929190611f93565b60405180910390f35b6000600160008573ffffffffffffffffffffffffffffffffffffffff1673ffffffffffffffffffffffffffffffffffffffff168152602001908152602001600020600101805461028d90612015565b9050146102cf576040517f08c379a00000000000000000000000000000000000000000000000000000000081526004016102c690612092565b60405180910390fd5b6004339080600181540180825580915050600190039060005260206000200160009091909190916101000a81548173ffffffffffffffffffffffffffffffffffffffff021916908373ffffffffffffffffffffffffffffffffffffffff16021790555060405180608001604052803373ffffffffffffffffffffffffffffffffffffffff168152602001838152602001828152602001600073ffffffffffffffffffffffffffffffffffffffff16815250600160003373ffffffffffffffffffffffffffffffffffffffff1673ffffffffffffffffffffffffffffffffffffffff16815260200190815260200160002060008201518160000160006101000a81548173ffffffffffffffffffffffffffffffffffffffff021916908373ffffffffffffffffffffffffffffffffffffffff160217905550602082015181600101908161041b919061225e565b506040820151816002019081610431919061225e565b5060608201518160030160006101000a81548173ffffffffffffffffffffffffffffffffffffffff021916908373ffffffffffffffffffffffffffffffffffffffff1602179055509050508273ffffffffffffffffffffffffffffffffffffffff167f141693b5e40271eb0dae55a41ee47c6a5d3c8e8172745d25cffa8f9d769aafdf8383336040516104c693929190612330565b60405180910390a2505050565b60016020528060005260406000206000915090508060000160009054906101000a900473ffffffffffffffffffffffffffffffffffffffff169080600101805461051c90612015565b80601f016020809104026020016040519081016040528092919081815260200182805461054890612015565b80156105955780601f1061056a57610100808354040283529160200191610595565b820191906000526020600020905b81548152906001019060200180831161057857829003601f168201915b5050505050908060020180546105aa90612015565b80601f01602080910402602001604051908101604052809291908181526020018280546105d690612015565b80156106235780601f106105f857610100808354040283529160200191610623565b820191906000526020600020905b81548152906001019060200180831161060657829003601f168201915b5050505050908060030160009054906101000a900473ffffffffffffffffffffffffffffffffffffffff16905084565b600360405180604001604052803373ffffffffffffffffffffffffffffffffffffffff16815260200183815250908060018154018082558091505060019003906000526020600020906002020160009091909190915060008201518160000160006101000a81548173ffffffffffffffffffffffffffffffffffffffff021916908373ffffffffffffffffffffffffffffffffffffffff1602179055506020820151816001019081610705919061225e565b5050503373ffffffffffffffffffffffffffffffffffffffff167fb81c56c7bd29f71bca6c82bfa0e4dd1c6e3dbd1056b5ce8a69f17d3b2756674e8260405161074e9190612375565b60405180910390a250565b606060008060003373ffffffffffffffffffffffffffffffffffffffff1673ffffffffffffffffffffffffffffffffffffffff16815260200190815260200160002060000180546107a990612015565b9050116107eb576040517f08c379a00000000000000000000000000000000000000000000000000000000081526004016107e2906123e3565b60405180910390fd5b600060048054905067ffffffffffffffff81111561080c5761080b6118c8565b5b60405190808252806020026020018201604052801561084557816020015b6108326117e7565b81526020019060019003908161082a5790505b5090506000805b600480549050811015610b2a5760006004828154811061086f5761086e612403565b5b9060005260206000200160009054906101000a900473ffffffffffffffffffffffffffffffffffffffff1690503373ffffffffffffffffffffffffffffffffffffffff168173ffffffffffffffffffffffffffffffffffffffff1603610b1657600160008273ffffffffffffffffffffffffffffffffffffffff1673ffffffffffffffffffffffffffffffffffffffff1681526020019081526020016000206040518060800160405290816000820160009054906101000a900473ffffffffffffffffffffffffffffffffffffffff1673ffffffffffffffffffffffffffffffffffffffff1673ffffffffffffffffffffffffffffffffffffffff16815260200160018201805461097f90612015565b80601f01602080910402602001604051908101604052809291908181526020018280546109ab90612015565b80156109f85780601f106109cd576101008083540402835291602001916109f8565b820191906000526020600020905b8154815290600101906020018083116109db57829003601f168201915b50505050508152602001600282018054610a1190612015565b80601f0160208091040260200160405190810160405280929190818152602001828054610a3d90612015565b8015610a8a5780601f10610a5f57610100808354040283529160200191610a8a565b820191906000526020600020905b815481529060010190602001808311610a6d57829003601f168201915b505050505081526020016003820160009054906101000a900473ffffffffffffffffffffffffffffffffffffffff1673ffffffffffffffffffffffffffffffffffffffff1673ffffffffffffffffffffffffffffffffffffffff1681525050848481518110610afc57610afb612403565b5b60200260200101819052508280610b1290612461565b9350505b508080610b2290612461565b91505061084c565b5060008167ffffffffffffffff811115610b4757610b466118c8565b5b604051908082528060200260200182016040528015610b8057816020015b610b6d6117e7565b815260200190600190039081610b655790505b50905060005b82811015610bda57838181518110610ba157610ba0612403565b5b6020026020010151828281518110610bbc57610bbb612403565b5b60200260200101819052508080610bd290612461565b915050610b86565b5080935050505090565b60038181548110610bf457600080fd5b90600052602060002090600202016000915090508060000160009054906101000a900473ffffffffffffffffffffffffffffffffffffffff1690806001018054610c3d90612015565b80601f0160208091040260200160405190810160405280929190818152602001828054610c6990612015565b8015610cb65780601f10610c8b57610100808354040283529160200191610cb6565b820191906000526020600020905b815481529060010190602001808311610c9957829003601f168201915b5050505050905082565b6000600160008673ffffffffffffffffffffffffffffffffffffffff1673ffffffffffffffffffffffffffffffffffffffff16815260200190815260200160002090503373ffffffffffffffffffffffffffffffffffffffff168160000160009054906101000a900473ffffffffffffffffffffffffffffffffffffffff1673ffffffffffffffffffffffffffffffffffffffff1614610d95576040517f08c379a0000000000000000000000000000000000000000000000000000000008152600401610d8c9061251b565b60405180910390fd5b600260008673ffffffffffffffffffffffffffffffffffffffff1673ffffffffffffffffffffffffffffffffffffffff16815260200190815260200160002060020160009054906101000a900460ff1615610e25576040517f08c379a0000000000000000000000000000000000000000000000000000000008152600401610e1c90612587565b60405180910390fd5b6040518060a00160405280848152602001838152602001600115158152602001600015158152602001600073ffffffffffffffffffffffffffffffffffffffff16815250600260008773ffffffffffffffffffffffffffffffffffffffff1673ffffffffffffffffffffffffffffffffffffffff168152602001908152602001600020600082015181600001556020820151816001015560408201518160020160006101000a81548160ff02191690831515021790555060608201518160020160016101000a81548160ff02191690831515021790555060808201518160020160026101000a81548173ffffffffffffffffffffffffffffffffffffffff021916908373ffffffffffffffffffffffffffffffffffffffff160217905550905050838160030160006101000a81548173ffffffffffffffffffffffffffffffffffffffff021916908373ffffffffffffffffffffffffffffffffffffffff1602179055508473ffffffffffffffffffffffffffffffffffffffff167f527a84c2af51fe57893ebb32484931647a0729a328883ee5919067e97ecfd6148484604051610fd19291906125a7565b60405180910390a25050505050565b6000600260008373ffffffffffffffffffffffffffffffffffffffff1673ffffffffffffffffffffffffffffffffffffffff16815260200190815260200160002090508060020160009054906101000a900460ff16611074576040517f08c379a000000000000000000000000000000000000000000000000000000000815260040161106b9061261c565b60405180910390fd5b600015158160020160019054906101000a900460ff161515146110cc576040517f08c379a00000000000000000000000000000000000000000000000000000000081526004016110c390612688565b60405180910390fd5b338160020160026101000a81548173ffffffffffffffffffffffffffffffffffffffff021916908373ffffffffffffffffffffffffffffffffffffffff1602179055505050565b6000600160008373ffffffffffffffffffffffffffffffffffffffff1673ffffffffffffffffffffffffffffffffffffffff16815260200190815260200160002090506000600260008473ffffffffffffffffffffffffffffffffffffffff1673ffffffffffffffffffffffffffffffffffffffff16815260200190815260200160002090503373ffffffffffffffffffffffffffffffffffffffff168260000160009054906101000a900473ffffffffffffffffffffffffffffffffffffffff1673ffffffffffffffffffffffffffffffffffffffff161461122b576040517f08c379a00000000000000000000000000000000000000000000000000000000081526004016112229061271a565b60405180910390fd5b8060020160009054906101000a900460ff1661127c576040517f08c379a00000000000000000000000000000000000000000000000000000000081526004016112739061261c565b60405180910390fd5b600015158160020160019054906101000a900460ff161515146112d4576040517f08c379a00000000000000000000000000000000000000000000000000000000081526004016112cb90612688565b60405180910390fd5b600073ffffffffffffffffffffffffffffffffffffffff168160020160029054906101000a900473ffffffffffffffffffffffffffffffffffffffff1673ffffffffffffffffffffffffffffffffffffffff16146113bf573373ffffffffffffffffffffffffffffffffffffffff168160020160029054906101000a900473ffffffffffffffffffffffffffffffffffffffff1673ffffffffffffffffffffffffffffffffffffffff16146113be576040517f08c379a00000000000000000000000000000000000000000000000000000000081526004016113b5906127d2565b60405180910390fd5b5b60008160020160006101000a81548160ff02191690831515021790555060018160020160016101000a81548160ff0219169083151502179055508060020160029054906101000a900473ffffffffffffffffffffffffffffffffffffffff1673ffffffffffffffffffffffffffffffffffffffff168373ffffffffffffffffffffffffffffffffffffffff167f07b520f2e1a3f2e686818158dab32fe19d7a4976d077d20affc019b17997406c60405160405180910390a3505050565b600060205280600052604060002060009150905080600001805461149f90612015565b80601f01602080910402602001604051908101604052809291908181526020018280546114cb90612015565b80156115185780601f106114ed57610100808354040283529160200191611518565b820191906000526020600020905b8154815290600101906020018083116114fb57829003601f168201915b50505050509080600101805461152d90612015565b80601f016020809104026020016040519081016040528092919081815260200182805461155990612015565b80156115a65780601f1061157b576101008083540402835291602001916115a6565b820191906000526020600020905b81548152906001019060200180831161158957829003601f168201915b5050505050908060020180546115bb90612015565b80601f01602080910402602001604051908101604052809291908181526020018280546115e790612015565b80156116345780601f1061160957610100808354040283529160200191611634565b820191906000526020600020905b81548152906001019060200180831161161757829003601f168201915b5050505050905083565b60008060003373ffffffffffffffffffffffffffffffffffffffff1673ffffffffffffffffffffffffffffffffffffffff168152602001908152602001600020600001805461168c90612015565b9050146116ce576040517f08c379a00000000000000000000000000000000000000000000000000000000081526004016116c59061283e565b60405180910390fd5b60006040518060600160405280858152602001848152602001838152509050806000803373ffffffffffffffffffffffffffffffffffffffff1673ffffffffffffffffffffffffffffffffffffffff1681526020019081526020016000206000820151816000019081611741919061225e565b506020820151816001019081611757919061225e565b50604082015181600201908161176d919061225e565b5090505050505050565b60026020528060005260406000206000915090508060000154908060010154908060020160009054906101000a900460ff16908060020160019054906101000a900460ff16908060020160029054906101000a900473ffffffffffffffffffffffffffffffffffffffff16905085565b6040518060800160405280600073ffffffffffffffffffffffffffffffffffffffff1681526020016060815260200160608152602001600073ffffffffffffffffffffffffffffffffffffffff1681525090565b6000604051905090565b600080fd5b600080fd5b600073ffffffffffffffffffffffffffffffffffffffff82169050919050565b600061187a8261184f565b9050919050565b61188a8161186f565b811461189557600080fd5b50565b6000813590506118a781611881565b92915050565b600080fd5b600080fd5b6000601f19601f8301169050919050565b7f4e487b7100000000000000000000000000000000000000000000000000000000600052604160045260246000fd5b611900826118b7565b810181811067ffffffffffffffff8211171561191f5761191e6118c8565b5b80604052505050565b600061193261183b565b905061193e82826118f7565b919050565b600067ffffffffffffffff82111561195e5761195d6118c8565b5b611967826118b7565b9050602081019050919050565b82818337600083830152505050565b600061199661199184611943565b611928565b9050828152602081018484840111156119b2576119b16118b2565b5b6119bd848285611974565b509392505050565b600082601f8301126119da576119d96118ad565b5b81356119ea848260208601611983565b91505092915050565b600080600060608486031215611a0c57611a0b611845565b5b6000611a1a86828701611898565b935050602084013567ffffffffffffffff811115611a3b57611a3a61184a565b5b611a47868287016119c5565b925050604084013567ffffffffffffffff811115611a6857611a6761184a565b5b611a74868287016119c5565b9150509250925092565b600060208284031215611a9457611a93611845565b5b6000611aa284828501611898565b91505092915050565b611ab48161186f565b82525050565b600081519050919050565b600082825260208201905092915050565b60005b83811015611af4578082015181840152602081019050611ad9565b60008484015250505050565b6000611b0b82611aba565b611b158185611ac5565b9350611b25818560208601611ad6565b611b2e816118b7565b840191505092915050565b6000608082019050611b4e6000830187611aab565b8181036020830152611b608186611b00565b90508181036040830152611b748185611b00565b9050611b836060830184611aab565b95945050505050565b600060208284031215611ba257611ba1611845565b5b600082013567ffffffffffffffff811115611bc057611bbf61184a565b5b611bcc848285016119c5565b91505092915050565b600081519050919050565b600082825260208201905092915050565b6000819050602082019050919050565b611c0a8161186f565b82525050565b600082825260208201905092915050565b6000611c2c82611aba565b611c368185611c10565b9350611c46818560208601611ad6565b611c4f816118b7565b840191505092915050565b6000608083016000830151611c726000860182611c01565b5060208301518482036020860152611c8a8282611c21565b91505060408301518482036040860152611ca48282611c21565b9150506060830151611cb96060860182611c01565b508091505092915050565b6000611cd08383611c5a565b905092915050565b6000602082019050919050565b6000611cf082611bd5565b611cfa8185611be0565b935083602082028501611d0c85611bf1565b8060005b85811015611d485784840389528151611d298582611cc4565b9450611d3483611cd8565b925060208a01995050600181019050611d10565b50829750879550505050505092915050565b60006020820190508181036000830152611d748184611ce5565b905092915050565b6000819050919050565b611d8f81611d7c565b8114611d9a57600080fd5b50565b600081359050611dac81611d86565b92915050565b600060208284031215611dc857611dc7611845565b5b6000611dd684828501611d9d565b91505092915050565b6000604082019050611df46000830185611aab565b8181036020830152611e068184611b00565b90509392505050565b60008060008060808587031215611e2957611e28611845565b5b6000611e3787828801611898565b9450506020611e4887828801611898565b9350506040611e5987828801611d9d565b9250506060611e6a87828801611d9d565b91505092959194509250565b60006060820190508181036000830152611e908186611b00565b90508181036020830152611ea48185611b00565b90508181036040830152611eb88184611b00565b9050949350505050565b600080600060608486031215611edb57611eda611845565b5b600084013567ffffffffffffffff811115611ef957611ef861184a565b5b611f05868287016119c5565b935050602084013567ffffffffffffffff811115611f2657611f2561184a565b5b611f32868287016119c5565b925050604084013567ffffffffffffffff811115611f5357611f5261184a565b5b611f5f868287016119c5565b9150509250925092565b611f7281611d7c565b82525050565b60008115159050919050565b611f8d81611f78565b82525050565b600060a082019050611fa86000830188611f69565b611fb56020830187611f69565b611fc26040830186611f84565b611fcf6060830185611f84565b611fdc6080830184611aab565b9695505050505050565b7f4e487b7100000000000000000000000000000000000000000000000000000000600052602260045260246000fd5b6000600282049050600182168061202d57607f821691505b6020821081036120405761203f611fe6565b5b50919050565b7f50726f706572747920616c726561647920657869737473000000000000000000600082015250565b600061207c601783611ac5565b915061208782612046565b602082019050919050565b600060208201905081810360008301526120ab8161206f565b9050919050565b60008190508160005260206000209050919050565b60006020601f8301049050919050565b600082821b905092915050565b6000600883026121147fffffffffffffffffffffffffffffffffffffffffffffffffffffffffffffffff826120d7565b61211e86836120d7565b95508019841693508086168417925050509392505050565b6000819050919050565b600061215b61215661215184611d7c565b612136565b611d7c565b9050919050565b6000819050919050565b61217583612140565b61218961218182612162565b8484546120e4565b825550505050565b600090565b61219e612191565b6121a981848461216c565b505050565b5b818110156121cd576121c2600082612196565b6001810190506121af565b5050565b601f821115612212576121e3816120b2565b6121ec846120c7565b810160208510156121fb578190505b61220f612207856120c7565b8301826121ae565b50505b505050565b600082821c905092915050565b600061223560001984600802612217565b1980831691505092915050565b600061224e8383612224565b9150826002028217905092915050565b61226782611aba565b67ffffffffffffffff8111156122805761227f6118c8565b5b61228a8254612015565b6122958282856121d1565b600060209050601f8311600181146122c857600084156122b6578287015190505b6122c08582612242565b865550612328565b601f1984166122d6866120b2565b60005b828110156122fe578489015182556001820191506020850194506020810190506122d9565b8683101561231b5784890151612317601f891682612224565b8355505b6001600288020188555050505b505050505050565b6000606082019050818103600083015261234a8186611b00565b9050818103602083015261235e8185611b00565b905061236d6040830184611aab565b949350505050565b6000602082019050818103600083015261238f8184611b00565b905092915050565b7f55736572206e6f74207265676973746572656400000000000000000000000000600082015250565b60006123cd601383611ac5565b91506123d882612397565b602082019050919050565b600060208201905081810360008301526123fc816123c0565b9050919050565b7f4e487b7100000000000000000000000000000000000000000000000000000000600052603260045260246000fd5b7f4e487b7100000000000000000000000000000000000000000000000000000000600052601160045260246000fd5b600061246c82611d7c565b91507fffffffffffffffffffffffffffffffffffffffffffffffffffffffffffffffff820361249e5761249d612432565b5b600182019050919050565b7f4f6e6c792070726f7065727479206f776e65722063616e20737461727420612060008201527f6c65617365000000000000000000000000000000000000000000000000000000602082015250565b6000612505602583611ac5565b9150612510826124a9565b604082019050919050565b60006020820190508181036000830152612534816124f8565b9050919050565b7f50726f706572747920697320616c72656164792072656e746564000000000000600082015250565b6000612571601a83611ac5565b915061257c8261253b565b602082019050919050565b600060208201905081810360008301526125a081612564565b9050919050565b60006040820190506125bc6000830185611f69565b6125c96020830184611f69565b9392505050565b7f50726f7065727479206973206e6f742072656e74656400000000000000000000600082015250565b6000612606601683611ac5565b9150612611826125d0565b602082019050919050565b60006020820190508181036000830152612635816125f9565b9050919050565b7f4c6561736520697320616c7265616479207465726d696e617465640000000000600082015250565b6000612672601b83611ac5565b915061267d8261263c565b602082019050919050565b600060208201905081810360008301526126a181612665565b9050919050565b7f4f6e6c792070726f7065727479206f776e65722063616e207465726d696e617460008201527f6520746865206c65617365000000000000000000000000000000000000000000602082015250565b6000612704602b83611ac5565b915061270f826126a8565b604082019050919050565b60006020820190508181036000830152612733816126f7565b9050919050565b7f4f6e6c792074686520757365722077686f20726571756573746564206561726c60008201527f79207465726d696e6174696f6e2063616e207465726d696e617465207468652060208201527f6c65617365000000000000000000000000000000000000000000000000000000604082015250565b60006127bc604583611ac5565b91506127c78261273a565b606082019050919050565b600060208201905081810360008301526127eb816127af565b9050919050565b7f5573657220616c72656164792072656769737465726564000000000000000000600082015250565b6000612828601783611ac5565b9150612833826127f2565b602082019050919050565b600060208201905081810360008301526128578161281b565b905091905056fea2646970667358221220b7f70f44c8a230e596ede6cbe34bc61753d7741aed398dcb55f4fba11e47ff7264736f6c63430008130033",
  "immutableReferences": {},
  "source": "// SPDX-License-Identifier: MIT\r\npragma solidity >=0.8.2 <0.9.0;\r\n\r\ncontract RentalContract {\r\n    struct User {\r\n        string userType; // Kullanc tr\r\n        string name; // Kullanc ad\r\n        string surname; // Kullanc soyad\r\n    }\r\n\r\n    struct Complaint {\r\n        address userAddress; // ikayet eden kullancnn adresi\r\n        string description; // ikayet nedeni\r\n    }\r\n\r\n    struct Property {\r\n        address owner; // Mlk sahibi\r\n        string propertyType; // Mlk tr (ev-dkkan)\r\n        string publicAddress; // Mlk adresi\r\n        address lease; // Kiralama szlemesi\r\n    }\r\n\r\n    struct Lease {\r\n        uint256 startDate; // Kira balang tarihi\r\n        uint256 endDate; // Kira biti tarihi\r\n        bool isRented; // Kiralanm m\r\n        bool isTerminated; // Kiralama sonlandrld m\r\n        address earlyTerminationRequestedBy; // Erken sonlandrma isteinde bulunan kii\r\n    }\r\n\r\n    mapping (address => User) public users;\r\n    mapping (address => Property) public properties;\r\n    mapping (address => Lease) public leases;\r\n    Complaint[] public complaints;\r\n    address[] private propertyOwners;\r\n\r\n    event UserRegistered(address indexed userAddress, string userType, string name, string surname);\r\n    event ComplaintFiled(address indexed userAddress, string description);\r\n    event PropertyAdded(address indexed propertyAddress, string propertyType, string publicAddress, address owner);\r\n    event LeaseStarted(address indexed propertyAddress, uint256 startDate, uint256 endDate);\r\n    event LeaseTerminated(address indexed propertyAddress, address indexed earlyTerminationRequestedBy);\r\n\r\n    // Kullanc kayd\r\n    function registerUser(string memory _userType, string memory _name, string memory _surname) public {\r\n        require(bytes(users[msg.sender].userType).length == 0, \"User already registered\");\r\n        User memory newUser = User({userType: _userType, name: _name, surname: _surname});\r\n        users[msg.sender] = newUser;\r\n    }\r\n\r\n    // ikayet oluturma\r\n    function fileComplaint(string memory _description) public {\r\n        complaints.push(Complaint(msg.sender, _description));\r\n        emit ComplaintFiled(msg.sender, _description);\r\n    }\r\n\r\n    // Mlk oluturma\r\n    function addProperty(address _propertyAddress, string memory _propertyType, string memory _publicAddress) public {\r\n        require(bytes(properties[_propertyAddress].propertyType).length == 0, \"Property already exists\");\r\n\r\n        // Mlk sahibini ve mlk ekle\r\n        propertyOwners.push(msg.sender);\r\n        properties[msg.sender] = Property(msg.sender, _propertyType, _publicAddress, address(0));\r\n        emit PropertyAdded(_propertyAddress, _propertyType, _publicAddress, msg.sender);\r\n    }\r\n\r\n    // Kullancnn sahip olduu tm mlkleri getir\r\n    function getUserProperties() public view returns (Property[] memory) {\r\n        require(bytes(users[msg.sender].userType).length > 0, \"User not registered\");\r\n\r\n        // Kullancnn sahip olduu mlkleri tutacak dizi\r\n        Property[] memory userProperties = new Property[](propertyOwners.length);\r\n        uint256 counter = 0;\r\n\r\n        // Tm mlk sahiplerini dn\r\n        for (uint256 i = 0; i < propertyOwners.length; i++) {\r\n            address propertyOwner = propertyOwners[i];\r\n\r\n            // Eer mlk sahibi kullanc ise\r\n            if (propertyOwner == msg.sender) {\r\n                // Kullancnn sahip olduu mlk listeye ekle\r\n                userProperties[counter] = properties[propertyOwner];\r\n                counter++;\r\n            }\r\n        }\r\n\r\n        // Gerek boyutta bir dizi olutur ve kullancnn mlklerini kopyala\r\n        Property[] memory result = new Property[](counter);\r\n        for (uint256 i = 0; i < counter; i++) {\r\n            result[i] = userProperties[i];\r\n        }\r\n\r\n        return result;\r\n    }\r\n\r\n    // Kiralama\r\n    function startLease(address _propertyAddress, address _tenant, uint256 _startDate, uint256 _endDate) public {\r\n        Property storage property = properties[_propertyAddress];\r\n        require(property.owner == msg.sender, \"Only property owner can start a lease\");\r\n        require(!leases[_propertyAddress].isRented, \"Property is already rented\");\r\n        leases[_propertyAddress] = Lease(_startDate, _endDate, true, false, address(0));\r\n        property.lease = _tenant;\r\n        emit LeaseStarted(_propertyAddress, _startDate, _endDate);\r\n    }\r\n\r\n    // Erken kiralama szlemesi sonlandrma talebi\r\n    function requestEarlyTermination(address _propertyAddress) public {\r\n        Lease storage lease = leases[_propertyAddress];\r\n        require(lease.isRented, \"Property is not rented\");\r\n        require(lease.isTerminated == false, \"Lease is already terminated\");\r\n        lease.earlyTerminationRequestedBy = msg.sender;\r\n    }\r\n\r\n    // Kiralama szlemesini sonlandrma\r\n    function terminateLease(address _propertyAddress) public {\r\n        Property storage property = properties[_propertyAddress];\r\n        Lease storage lease = leases[_propertyAddress];\r\n        require(property.owner == msg.sender, \"Only property owner can terminate the lease\");\r\n        require(lease.isRented, \"Property is not rented\");\r\n        require(lease.isTerminated == false, \"Lease is already terminated\");\r\n        if (lease.earlyTerminationRequestedBy != address(0)) {\r\n            require(lease.earlyTerminationRequestedBy == msg.sender, \"Only the user who requested early termination can terminate the lease\");\r\n        }\r\n        lease.isRented = false;\r\n        lease.isTerminated = true;\r\n        emit LeaseTerminated(_propertyAddress, lease.earlyTerminationRequestedBy);\r\n    }\r\n}",
  "sourcePath": "C:\\ekineskin\\RentalManagement\\rental-management\\contracts\\RentalContract.sol",
  "compiler": {
    "name": "solc",
    "version": "0.8.19+commit.7dd6d404.Emscripten.clang"
  },
  "schemaVersion": "3.4.16",
  "updatedAt": "2023-11-17T07:15:01.734Z",
  "networkType": "ethereum",
  "devdoc": {
    "kind": "dev",
    "methods": {},
    "version": 1
  },
  "userdoc": {
    "kind": "user",
    "methods": {},
    "version": 1
  }
}