{
  "contractName": "RentalContract",
  "abi": [
    {
      "anonymous": false,
      "inputs": [
        {
          "indexed": true,
          "internalType": "address",
          "name": "userAddress",
          "type": "address"
        },
        {
          "indexed": false,
          "internalType": "string",
          "name": "description",
          "type": "string"
        }
      ],
      "name": "ComplaintFiled",
      "type": "event"
    },
    {
      "anonymous": false,
      "inputs": [
        {
          "indexed": true,
          "internalType": "address",
          "name": "propertyAddress",
          "type": "address"
        },
        {
          "indexed": false,
          "internalType": "uint256",
          "name": "startDate",
          "type": "uint256"
        },
        {
          "indexed": false,
          "internalType": "uint256",
          "name": "endDate",
          "type": "uint256"
        }
      ],
      "name": "LeaseStarted",
      "type": "event"
    },
    {
      "anonymous": false,
      "inputs": [
        {
          "indexed": true,
          "internalType": "address",
          "name": "propertyAddress",
          "type": "address"
        },
        {
          "indexed": true,
          "internalType": "address",
          "name": "earlyTerminationRequestedBy",
          "type": "address"
        }
      ],
      "name": "LeaseTerminated",
      "type": "event"
    },
    {
      "anonymous": false,
      "inputs": [
        {
          "indexed": true,
          "internalType": "address",
          "name": "propertyAddress",
          "type": "address"
        },
        {
          "indexed": false,
          "internalType": "string",
          "name": "propertyType",
          "type": "string"
        },
        {
          "indexed": false,
          "internalType": "address",
          "name": "owner",
          "type": "address"
        }
      ],
      "name": "PropertyAdded",
      "type": "event"
    },
    {
      "anonymous": false,
      "inputs": [
        {
          "indexed": true,
          "internalType": "address",
          "name": "userAddress",
          "type": "address"
        },
        {
          "indexed": false,
          "internalType": "string",
          "name": "userType",
          "type": "string"
        },
        {
          "indexed": false,
          "internalType": "string",
          "name": "name",
          "type": "string"
        },
        {
          "indexed": false,
          "internalType": "string",
          "name": "surname",
          "type": "string"
        }
      ],
      "name": "UserRegistered",
      "type": "event"
    },
    {
      "inputs": [
        {
          "internalType": "uint256",
          "name": "",
          "type": "uint256"
        }
      ],
      "name": "complaints",
      "outputs": [
        {
          "internalType": "address",
          "name": "userAddress",
          "type": "address"
        },
        {
          "internalType": "string",
          "name": "description",
          "type": "string"
        }
      ],
      "stateMutability": "view",
      "type": "function",
      "constant": true
    },
    {
      "inputs": [
        {
          "internalType": "address",
          "name": "",
          "type": "address"
        }
      ],
      "name": "leases",
      "outputs": [
        {
          "internalType": "uint256",
          "name": "startDate",
          "type": "uint256"
        },
        {
          "internalType": "uint256",
          "name": "endDate",
          "type": "uint256"
        },
        {
          "internalType": "bool",
          "name": "isRented",
          "type": "bool"
        },
        {
          "internalType": "bool",
          "name": "isTerminated",
          "type": "bool"
        },
        {
          "internalType": "address",
          "name": "earlyTerminationRequestedBy",
          "type": "address"
        }
      ],
      "stateMutability": "view",
      "type": "function",
      "constant": true
    },
    {
      "inputs": [
        {
          "internalType": "address",
          "name": "",
          "type": "address"
        }
      ],
      "name": "properties",
      "outputs": [
        {
          "internalType": "address",
          "name": "owner",
          "type": "address"
        },
        {
          "internalType": "string",
          "name": "propertyType",
          "type": "string"
        },
        {
          "internalType": "address",
          "name": "lease",
          "type": "address"
        }
      ],
      "stateMutability": "view",
      "type": "function",
      "constant": true
    },
    {
      "inputs": [
        {
          "internalType": "address",
          "name": "",
          "type": "address"
        }
      ],
      "name": "users",
      "outputs": [
        {
          "internalType": "string",
          "name": "userType",
          "type": "string"
        },
        {
          "internalType": "string",
          "name": "name",
          "type": "string"
        },
        {
          "internalType": "string",
          "name": "surname",
          "type": "string"
        }
      ],
      "stateMutability": "view",
      "type": "function",
      "constant": true
    },
    {
      "inputs": [
        {
          "internalType": "string",
          "name": "_userType",
          "type": "string"
        },
        {
          "internalType": "string",
          "name": "_name",
          "type": "string"
        },
        {
          "internalType": "string",
          "name": "_surname",
          "type": "string"
        }
      ],
      "name": "registerUser",
      "outputs": [],
      "stateMutability": "nonpayable",
      "type": "function"
    },
    {
      "inputs": [],
      "name": "getUser",
      "outputs": [
        {
          "internalType": "string",
          "name": "",
          "type": "string"
        },
        {
          "internalType": "string",
          "name": "",
          "type": "string"
        },
        {
          "internalType": "string",
          "name": "",
          "type": "string"
        }
      ],
      "stateMutability": "view",
      "type": "function",
      "constant": true
    },
    {
      "inputs": [
        {
          "internalType": "string",
          "name": "_description",
          "type": "string"
        }
      ],
      "name": "fileComplaint",
      "outputs": [],
      "stateMutability": "nonpayable",
      "type": "function"
    },
    {
      "inputs": [
        {
          "internalType": "address",
          "name": "_propertyAddress",
          "type": "address"
        },
        {
          "internalType": "string",
          "name": "_propertyType",
          "type": "string"
        }
      ],
      "name": "addProperty",
      "outputs": [],
      "stateMutability": "nonpayable",
      "type": "function"
    },
    {
      "inputs": [
        {
          "internalType": "address",
          "name": "_propertyAddress",
          "type": "address"
        },
        {
          "internalType": "address",
          "name": "_tenant",
          "type": "address"
        },
        {
          "internalType": "uint256",
          "name": "_startDate",
          "type": "uint256"
        },
        {
          "internalType": "uint256",
          "name": "_endDate",
          "type": "uint256"
        }
      ],
      "name": "startLease",
      "outputs": [],
      "stateMutability": "nonpayable",
      "type": "function"
    },
    {
      "inputs": [
        {
          "internalType": "address",
          "name": "_propertyAddress",
          "type": "address"
        }
      ],
      "name": "requestEarlyTermination",
      "outputs": [],
      "stateMutability": "nonpayable",
      "type": "function"
    },
    {
      "inputs": [
        {
          "internalType": "address",
          "name": "_propertyAddress",
          "type": "address"
        }
      ],
      "name": "terminateLease",
      "outputs": [],
      "stateMutability": "nonpayable",
      "type": "function"
    }
  ],
  "bytecode": "0x608060405234801561001057600080fd5b50612197806100206000396000f3fe608060405234801561001057600080fd5b50600436106100a95760003560e01c806398f013ea1161007157806398f013ea146101695780639c2e8b6c14610185578063a87430ba146101a1578063d637dcfa146101d3578063d72d31ea146101ef578063d74d1f431461020b576100a9565b806325ec77d7146100ae57806349ebcd53146100e05780637e69e912146100fc578063832880e71461012d5780638b80a1fe1461014d575b600080fd5b6100c860048036038101906100c391906114c2565b61023f565b6040516100d79392919061158e565b60405180910390f35b6100fa60048036038101906100f59190611701565b610331565b005b61011660048036038101906101119190611780565b610437565b6040516101249291906117ad565b60405180910390f35b610135610513565b604051610144939291906117dd565b60405180910390f35b61016760048036038101906101629190611829565b610716565b005b610183600480360381019061017e91906114c2565b610a36565b005b61019f600480360381019061019a91906114c2565b610b69565b005b6101bb60048036038101906101b691906114c2565b610ed2565b6040516101ca939291906117dd565b60405180910390f35b6101ed60048036038101906101e89190611890565b611094565b005b61020960048036038101906102049190611937565b6111cd565b005b610225600480360381019061022091906114c2565b6113e0565b6040516102369594939291906119bd565b60405180910390f35b60016020528060005260406000206000915090508060000160009054906101000a900473ffffffffffffffffffffffffffffffffffffffff169080600101805461028890611a3f565b80601f01602080910402602001604051908101604052809291908181526020018280546102b490611a3f565b80156103015780601f106102d657610100808354040283529160200191610301565b820191906000526020600020905b8154815290600101906020018083116102e457829003601f168201915b5050505050908060020160009054906101000a900473ffffffffffffffffffffffffffffffffffffffff16905083565b600360405180604001604052803373ffffffffffffffffffffffffffffffffffffffff16815260200183815250908060018154018082558091505060019003906000526020600020906002020160009091909190915060008201518160000160006101000a81548173ffffffffffffffffffffffffffffffffffffffff021916908373ffffffffffffffffffffffffffffffffffffffff16021790555060208201518160010190816103e39190611c1c565b5050503373ffffffffffffffffffffffffffffffffffffffff167fb81c56c7bd29f71bca6c82bfa0e4dd1c6e3dbd1056b5ce8a69f17d3b2756674e8260405161042c9190611cee565b60405180910390a250565b6003818154811061044757600080fd5b90600052602060002090600202016000915090508060000160009054906101000a900473ffffffffffffffffffffffffffffffffffffffff169080600101805461049090611a3f565b80601f01602080910402602001604051908101604052809291908181526020018280546104bc90611a3f565b80156105095780601f106104de57610100808354040283529160200191610509565b820191906000526020600020905b8154815290600101906020018083116104ec57829003601f168201915b5050505050905082565b606080606060008060003373ffffffffffffffffffffffffffffffffffffffff1673ffffffffffffffffffffffffffffffffffffffff168152602001908152602001600020905080600001816001018260020182805461057290611a3f565b80601f016020809104026020016040519081016040528092919081815260200182805461059e90611a3f565b80156105eb5780601f106105c0576101008083540402835291602001916105eb565b820191906000526020600020905b8154815290600101906020018083116105ce57829003601f168201915b505050505092508180546105fe90611a3f565b80601f016020809104026020016040519081016040528092919081815260200182805461062a90611a3f565b80156106775780601f1061064c57610100808354040283529160200191610677565b820191906000526020600020905b81548152906001019060200180831161065a57829003601f168201915b5050505050915080805461068a90611a3f565b80601f01602080910402602001604051908101604052809291908181526020018280546106b690611a3f565b80156107035780601f106106d857610100808354040283529160200191610703565b820191906000526020600020905b8154815290600101906020018083116106e657829003601f168201915b5050505050905093509350935050909192565b6000600160008673ffffffffffffffffffffffffffffffffffffffff1673ffffffffffffffffffffffffffffffffffffffff16815260200190815260200160002090503373ffffffffffffffffffffffffffffffffffffffff168160000160009054906101000a900473ffffffffffffffffffffffffffffffffffffffff1673ffffffffffffffffffffffffffffffffffffffff16146107eb576040517f08c379a00000000000000000000000000000000000000000000000000000000081526004016107e290611d82565b60405180910390fd5b600260008673ffffffffffffffffffffffffffffffffffffffff1673ffffffffffffffffffffffffffffffffffffffff16815260200190815260200160002060020160009054906101000a900460ff161561087b576040517f08c379a000000000000000000000000000000000000000000000000000000000815260040161087290611dee565b60405180910390fd5b6040518060a00160405280848152602001838152602001600115158152602001600015158152602001600073ffffffffffffffffffffffffffffffffffffffff16815250600260008773ffffffffffffffffffffffffffffffffffffffff1673ffffffffffffffffffffffffffffffffffffffff168152602001908152602001600020600082015181600001556020820151816001015560408201518160020160006101000a81548160ff02191690831515021790555060608201518160020160016101000a81548160ff02191690831515021790555060808201518160020160026101000a81548173ffffffffffffffffffffffffffffffffffffffff021916908373ffffffffffffffffffffffffffffffffffffffff160217905550905050838160020160006101000a81548173ffffffffffffffffffffffffffffffffffffffff021916908373ffffffffffffffffffffffffffffffffffffffff1602179055508473ffffffffffffffffffffffffffffffffffffffff167f527a84c2af51fe57893ebb32484931647a0729a328883ee5919067e97ecfd6148484604051610a27929190611e0e565b60405180910390a25050505050565b6000600260008373ffffffffffffffffffffffffffffffffffffffff1673ffffffffffffffffffffffffffffffffffffffff16815260200190815260200160002090508060020160009054906101000a900460ff16610aca576040517f08c379a0000000000000000000000000000000000000000000000000000000008152600401610ac190611e83565b60405180910390fd5b600015158160020160019054906101000a900460ff16151514610b22576040517f08c379a0000000000000000000000000000000000000000000000000000000008152600401610b1990611eef565b60405180910390fd5b338160020160026101000a81548173ffffffffffffffffffffffffffffffffffffffff021916908373ffffffffffffffffffffffffffffffffffffffff1602179055505050565b6000600160008373ffffffffffffffffffffffffffffffffffffffff1673ffffffffffffffffffffffffffffffffffffffff16815260200190815260200160002090506000600260008473ffffffffffffffffffffffffffffffffffffffff1673ffffffffffffffffffffffffffffffffffffffff16815260200190815260200160002090503373ffffffffffffffffffffffffffffffffffffffff168260000160009054906101000a900473ffffffffffffffffffffffffffffffffffffffff1673ffffffffffffffffffffffffffffffffffffffff1614610c81576040517f08c379a0000000000000000000000000000000000000000000000000000000008152600401610c7890611f81565b60405180910390fd5b8060020160009054906101000a900460ff16610cd2576040517f08c379a0000000000000000000000000000000000000000000000000000000008152600401610cc990611e83565b60405180910390fd5b600015158160020160019054906101000a900460ff16151514610d2a576040517f08c379a0000000000000000000000000000000000000000000000000000000008152600401610d2190611eef565b60405180910390fd5b600073ffffffffffffffffffffffffffffffffffffffff168160020160029054906101000a900473ffffffffffffffffffffffffffffffffffffffff1673ffffffffffffffffffffffffffffffffffffffff1614610e15573373ffffffffffffffffffffffffffffffffffffffff168160020160029054906101000a900473ffffffffffffffffffffffffffffffffffffffff1673ffffffffffffffffffffffffffffffffffffffff1614610e14576040517f08c379a0000000000000000000000000000000000000000000000000000000008152600401610e0b90612039565b60405180910390fd5b5b60008160020160006101000a81548160ff02191690831515021790555060018160020160016101000a81548160ff0219169083151502179055508060020160029054906101000a900473ffffffffffffffffffffffffffffffffffffffff1673ffffffffffffffffffffffffffffffffffffffff168373ffffffffffffffffffffffffffffffffffffffff167f07b520f2e1a3f2e686818158dab32fe19d7a4976d077d20affc019b17997406c60405160405180910390a3505050565b6000602052806000526040600020600091509050806000018054610ef590611a3f565b80601f0160208091040260200160405190810160405280929190818152602001828054610f2190611a3f565b8015610f6e5780601f10610f4357610100808354040283529160200191610f6e565b820191906000526020600020905b815481529060010190602001808311610f5157829003601f168201915b505050505090806001018054610f8390611a3f565b80601f0160208091040260200160405190810160405280929190818152602001828054610faf90611a3f565b8015610ffc5780601f10610fd157610100808354040283529160200191610ffc565b820191906000526020600020905b815481529060010190602001808311610fdf57829003601f168201915b50505050509080600201805461101190611a3f565b80601f016020809104026020016040519081016040528092919081815260200182805461103d90611a3f565b801561108a5780601f1061105f5761010080835404028352916020019161108a565b820191906000526020600020905b81548152906001019060200180831161106d57829003601f168201915b5050505050905083565b60008060003373ffffffffffffffffffffffffffffffffffffffff1673ffffffffffffffffffffffffffffffffffffffff16815260200190815260200160002060000180546110e290611a3f565b905014611124576040517f08c379a000000000000000000000000000000000000000000000000000000000815260040161111b906120a5565b60405180910390fd5b60006040518060600160405280858152602001848152602001838152509050806000803373ffffffffffffffffffffffffffffffffffffffff1673ffffffffffffffffffffffffffffffffffffffff16815260200190815260200160002060008201518160000190816111979190611c1c565b5060208201518160010190816111ad9190611c1c565b5060408201518160020190816111c39190611c1c565b5090505050505050565b6000600160008473ffffffffffffffffffffffffffffffffffffffff1673ffffffffffffffffffffffffffffffffffffffff168152602001908152602001600020600101805461121c90611a3f565b90501461125e576040517f08c379a000000000000000000000000000000000000000000000000000000000815260040161125590612111565b60405180910390fd5b60405180606001604052803373ffffffffffffffffffffffffffffffffffffffff168152602001828152602001600073ffffffffffffffffffffffffffffffffffffffff16815250600160008473ffffffffffffffffffffffffffffffffffffffff1673ffffffffffffffffffffffffffffffffffffffff16815260200190815260200160002060008201518160000160006101000a81548173ffffffffffffffffffffffffffffffffffffffff021916908373ffffffffffffffffffffffffffffffffffffffff16021790555060208201518160010190816113419190611c1c565b5060408201518160020160006101000a81548173ffffffffffffffffffffffffffffffffffffffff021916908373ffffffffffffffffffffffffffffffffffffffff1602179055509050508173ffffffffffffffffffffffffffffffffffffffff167fc14faf3d7d9573a8171bd0e9ee303c428f28c33709aabb0fa4bd3390915f2b7a82336040516113d4929190612131565b60405180910390a25050565b60026020528060005260406000206000915090508060000154908060010154908060020160009054906101000a900460ff16908060020160019054906101000a900460ff16908060020160029054906101000a900473ffffffffffffffffffffffffffffffffffffffff16905085565b6000604051905090565b600080fd5b600080fd5b600073ffffffffffffffffffffffffffffffffffffffff82169050919050565b600061148f82611464565b9050919050565b61149f81611484565b81146114aa57600080fd5b50565b6000813590506114bc81611496565b92915050565b6000602082840312156114d8576114d761145a565b5b60006114e6848285016114ad565b91505092915050565b6114f881611484565b82525050565b600081519050919050565b600082825260208201905092915050565b60005b8381101561153857808201518184015260208101905061151d565b60008484015250505050565b6000601f19601f8301169050919050565b6000611560826114fe565b61156a8185611509565b935061157a81856020860161151a565b61158381611544565b840191505092915050565b60006060820190506115a360008301866114ef565b81810360208301526115b58185611555565b90506115c460408301846114ef565b949350505050565b600080fd5b600080fd5b7f4e487b7100000000000000000000000000000000000000000000000000000000600052604160045260246000fd5b61160e82611544565b810181811067ffffffffffffffff8211171561162d5761162c6115d6565b5b80604052505050565b6000611640611450565b905061164c8282611605565b919050565b600067ffffffffffffffff82111561166c5761166b6115d6565b5b61167582611544565b9050602081019050919050565b82818337600083830152505050565b60006116a461169f84611651565b611636565b9050828152602081018484840111156116c0576116bf6115d1565b5b6116cb848285611682565b509392505050565b600082601f8301126116e8576116e76115cc565b5b81356116f8848260208601611691565b91505092915050565b6000602082840312156117175761171661145a565b5b600082013567ffffffffffffffff8111156117355761173461145f565b5b611741848285016116d3565b91505092915050565b6000819050919050565b61175d8161174a565b811461176857600080fd5b50565b60008135905061177a81611754565b92915050565b6000602082840312156117965761179561145a565b5b60006117a48482850161176b565b91505092915050565b60006040820190506117c260008301856114ef565b81810360208301526117d48184611555565b90509392505050565b600060608201905081810360008301526117f78186611555565b9050818103602083015261180b8185611555565b9050818103604083015261181f8184611555565b9050949350505050565b600080600080608085870312156118435761184261145a565b5b6000611851878288016114ad565b9450506020611862878288016114ad565b93505060406118738782880161176b565b92505060606118848782880161176b565b91505092959194509250565b6000806000606084860312156118a9576118a861145a565b5b600084013567ffffffffffffffff8111156118c7576118c661145f565b5b6118d3868287016116d3565b935050602084013567ffffffffffffffff8111156118f4576118f361145f565b5b611900868287016116d3565b925050604084013567ffffffffffffffff8111156119215761192061145f565b5b61192d868287016116d3565b9150509250925092565b6000806040838503121561194e5761194d61145a565b5b600061195c858286016114ad565b925050602083013567ffffffffffffffff81111561197d5761197c61145f565b5b611989858286016116d3565b9150509250929050565b61199c8161174a565b82525050565b60008115159050919050565b6119b7816119a2565b82525050565b600060a0820190506119d26000830188611993565b6119df6020830187611993565b6119ec60408301866119ae565b6119f960608301856119ae565b611a0660808301846114ef565b9695505050505050565b7f4e487b7100000000000000000000000000000000000000000000000000000000600052602260045260246000fd5b60006002820490506001821680611a5757607f821691505b602082108103611a6a57611a69611a10565b5b50919050565b60008190508160005260206000209050919050565b60006020601f8301049050919050565b600082821b905092915050565b600060088302611ad27fffffffffffffffffffffffffffffffffffffffffffffffffffffffffffffffff82611a95565b611adc8683611a95565b95508019841693508086168417925050509392505050565b6000819050919050565b6000611b19611b14611b0f8461174a565b611af4565b61174a565b9050919050565b6000819050919050565b611b3383611afe565b611b47611b3f82611b20565b848454611aa2565b825550505050565b600090565b611b5c611b4f565b611b67818484611b2a565b505050565b5b81811015611b8b57611b80600082611b54565b600181019050611b6d565b5050565b601f821115611bd057611ba181611a70565b611baa84611a85565b81016020851015611bb9578190505b611bcd611bc585611a85565b830182611b6c565b50505b505050565b600082821c905092915050565b6000611bf360001984600802611bd5565b1980831691505092915050565b6000611c0c8383611be2565b9150826002028217905092915050565b611c25826114fe565b67ffffffffffffffff811115611c3e57611c3d6115d6565b5b611c488254611a3f565b611c53828285611b8f565b600060209050601f831160018114611c865760008415611c74578287015190505b611c7e8582611c00565b865550611ce6565b601f198416611c9486611a70565b60005b82811015611cbc57848901518255600182019150602085019450602081019050611c97565b86831015611cd95784890151611cd5601f891682611be2565b8355505b6001600288020188555050505b505050505050565b60006020820190508181036000830152611d088184611555565b905092915050565b7f4f6e6c792070726f7065727479206f776e65722063616e20737461727420612060008201527f6c65617365000000000000000000000000000000000000000000000000000000602082015250565b6000611d6c602583611509565b9150611d7782611d10565b604082019050919050565b60006020820190508181036000830152611d9b81611d5f565b9050919050565b7f50726f706572747920697320616c72656164792072656e746564000000000000600082015250565b6000611dd8601a83611509565b9150611de382611da2565b602082019050919050565b60006020820190508181036000830152611e0781611dcb565b9050919050565b6000604082019050611e236000830185611993565b611e306020830184611993565b9392505050565b7f50726f7065727479206973206e6f742072656e74656400000000000000000000600082015250565b6000611e6d601683611509565b9150611e7882611e37565b602082019050919050565b60006020820190508181036000830152611e9c81611e60565b9050919050565b7f4c6561736520697320616c7265616479207465726d696e617465640000000000600082015250565b6000611ed9601b83611509565b9150611ee482611ea3565b602082019050919050565b60006020820190508181036000830152611f0881611ecc565b9050919050565b7f4f6e6c792070726f7065727479206f776e65722063616e207465726d696e617460008201527f6520746865206c65617365000000000000000000000000000000000000000000602082015250565b6000611f6b602b83611509565b9150611f7682611f0f565b604082019050919050565b60006020820190508181036000830152611f9a81611f5e565b9050919050565b7f4f6e6c792074686520757365722077686f20726571756573746564206561726c60008201527f79207465726d696e6174696f6e2063616e207465726d696e617465207468652060208201527f6c65617365000000000000000000000000000000000000000000000000000000604082015250565b6000612023604583611509565b915061202e82611fa1565b606082019050919050565b6000602082019050818103600083015261205281612016565b9050919050565b7f5573657220616c72656164792072656769737465726564000000000000000000600082015250565b600061208f601783611509565b915061209a82612059565b602082019050919050565b600060208201905081810360008301526120be81612082565b9050919050565b7f50726f706572747920616c726561647920657869737473000000000000000000600082015250565b60006120fb601783611509565b9150612106826120c5565b602082019050919050565b6000602082019050818103600083015261212a816120ee565b9050919050565b6000604082019050818103600083015261214b8185611555565b905061215a60208301846114ef565b939250505056fea2646970667358221220ec73c0b647e699715ba21cd2c88d17442e05c9ac128f36bded826b6fc2b4737564736f6c63430008130033",
  "immutableReferences": {},
  "source": "// SPDX-License-Identifier: MIT\r\npragma solidity >=0.8.2 <0.9.0;\r\n\r\ncontract RentalContract {\r\n    struct User {\r\n        string userType; // Kullanc tr\r\n        string name; // Kullanc ad\r\n        string surname; // Kullanc soyad\r\n    }\r\n\r\n    struct Complaint {\r\n        address userAddress; // ikayet eden kullancnn adresi\r\n        string description; // ikayet nedeni\r\n    }\r\n\r\n    struct Property {\r\n        address owner; // Mlk sahibi\r\n        string propertyType; // Mlk tr (ev-dkkan)\r\n        address lease; // Kiralama szlemesi\r\n    }\r\n\r\n    struct Lease {\r\n        uint256 startDate; // Kira balang tarihi\r\n        uint256 endDate; // Kira biti tarihi\r\n        bool isRented; // Kiralanm m\r\n        bool isTerminated; // Kiralama sonlandrld m\r\n        address earlyTerminationRequestedBy; // Erken sonlandrma isteinde bulunan kii\r\n    }\r\n\r\n    mapping (address => User) public users;\r\n    mapping (address => Property) public properties;\r\n    mapping (address => Lease) public leases;\r\n    Complaint[] public complaints;\r\n\r\n    event UserRegistered(address indexed userAddress, string userType, string name, string surname);\r\n    event ComplaintFiled(address indexed userAddress, string description);\r\n    event PropertyAdded(address indexed propertyAddress, string propertyType, address owner);\r\n    event LeaseStarted(address indexed propertyAddress, uint256 startDate, uint256 endDate);\r\n    event LeaseTerminated(address indexed propertyAddress, address indexed earlyTerminationRequestedBy);\r\n\r\n    // Kullanc kayd\r\n    function registerUser(string memory _userType, string memory _name, string memory _surname) public {\r\n        require(bytes(users[msg.sender].userType).length == 0, \"User already registered\");\r\n        User memory newUser = User({userType: _userType, name: _name, surname: _surname});\r\n        users[msg.sender] = newUser;\r\n    }\r\n\r\n    // Kullanc bilgilerini getir\r\n    function getUser() public view returns (string memory, string memory, string memory) {\r\n        User storage currentUser = users[msg.sender];\r\n        return (currentUser.userType, currentUser.name, currentUser.surname);\r\n    }\r\n\r\n    // ikayet oluturma\r\n    function fileComplaint(string memory _description) public {\r\n        complaints.push(Complaint(msg.sender, _description));\r\n        emit ComplaintFiled(msg.sender, _description);\r\n    }\r\n\r\n    // Mlk oluturma\r\n    function addProperty(address _propertyAddress, string memory _propertyType) public {\r\n        require(bytes(properties[_propertyAddress].propertyType).length == 0, \"Property already exists\");\r\n        properties[_propertyAddress] = Property(msg.sender, _propertyType, address(0));\r\n        emit PropertyAdded(_propertyAddress, _propertyType, msg.sender);\r\n    }\r\n\r\n    // Kiralama\r\n    function startLease(address _propertyAddress, address _tenant, uint256 _startDate, uint256 _endDate) public {\r\n        Property storage property = properties[_propertyAddress];\r\n        require(property.owner == msg.sender, \"Only property owner can start a lease\");\r\n        require(!leases[_propertyAddress].isRented, \"Property is already rented\");\r\n        leases[_propertyAddress] = Lease(_startDate, _endDate, true, false, address(0));\r\n        property.lease = _tenant;\r\n        emit LeaseStarted(_propertyAddress, _startDate, _endDate);\r\n    }\r\n\r\n    // Erken kiralama szlemesi sonlandrma talebi\r\n    function requestEarlyTermination(address _propertyAddress) public {\r\n        Lease storage lease = leases[_propertyAddress];\r\n        require(lease.isRented, \"Property is not rented\");\r\n        require(lease.isTerminated == false, \"Lease is already terminated\");\r\n        lease.earlyTerminationRequestedBy = msg.sender;\r\n    }\r\n\r\n    // Kiralama szlemesini sonlandrma\r\n    function terminateLease(address _propertyAddress) public {\r\n        Property storage property = properties[_propertyAddress];\r\n        Lease storage lease = leases[_propertyAddress];\r\n        require(property.owner == msg.sender, \"Only property owner can terminate the lease\");\r\n        require(lease.isRented, \"Property is not rented\");\r\n        require(lease.isTerminated == false, \"Lease is already terminated\");\r\n        if (lease.earlyTerminationRequestedBy != address(0)) {\r\n            require(lease.earlyTerminationRequestedBy == msg.sender, \"Only the user who requested early termination can terminate the lease\");\r\n        }\r\n        lease.isRented = false;\r\n        lease.isTerminated = true;\r\n        emit LeaseTerminated(_propertyAddress, lease.earlyTerminationRequestedBy);\r\n    }\r\n}",
  "sourcePath": "C:\\ekineskin\\RentalManagement\\rental-management\\contracts\\RentalContract.sol",
  "compiler": {
    "name": "solc",
    "version": "0.8.19+commit.7dd6d404.Emscripten.clang"
  },
  "schemaVersion": "3.4.16",
  "updatedAt": "2023-11-16T13:27:33.836Z",
  "networkType": "ethereum",
  "devdoc": {
    "kind": "dev",
    "methods": {},
    "version": 1
  },
  "userdoc": {
    "kind": "user",
    "methods": {},
    "version": 1
  }
}